{
  "abi": [
    {
      "inputs": [
        {
          "internalType": "uint64",
          "name": "subscriptionId",
          "type": "uint64"
        },
        {
          "internalType": "address",
          "name": "vrfCoordinator",
          "type": "address"
        },
        {
          "internalType": "address",
          "name": "link",
          "type": "address"
        },
        {
          "internalType": "bytes32",
          "name": "keyHash",
          "type": "bytes32"
        }
      ],
      "stateMutability": "nonpayable",
      "type": "constructor"
    },
    {
      "anonymous": false,
      "inputs": [
        {
          "indexed": true,
          "internalType": "address",
          "name": "owner",
          "type": "address"
        },
        {
          "indexed": true,
          "internalType": "address",
          "name": "spender",
          "type": "address"
        },
        {
          "indexed": false,
          "internalType": "uint256",
          "name": "amount",
          "type": "uint256"
        }
      ],
      "name": "Approval",
      "type": "event"
    },
    {
      "anonymous": false,
      "inputs": [
        {
          "indexed": false,
          "internalType": "uint256[]",
          "name": "randomWords",
          "type": "uint256[]"
        }
      ],
      "name": "ReturnedRandomness",
      "type": "event"
    },
    {
      "anonymous": false,
      "inputs": [
        {
          "indexed": true,
          "internalType": "address",
          "name": "from",
          "type": "address"
        },
        {
          "indexed": true,
          "internalType": "address",
          "name": "to",
          "type": "address"
        },
        {
          "indexed": false,
          "internalType": "uint256",
          "name": "amount",
          "type": "uint256"
        }
      ],
      "name": "Transfer",
      "type": "event"
    },
    {
      "inputs": [],
      "name": "DOMAIN_SEPARATOR",
      "outputs": [
        {
          "internalType": "bytes32",
          "name": "",
          "type": "bytes32"
        }
      ],
      "stateMutability": "view",
      "type": "function"
    },
    {
      "inputs": [
        {
          "internalType": "address",
          "name": "",
          "type": "address"
        },
        {
          "internalType": "address",
          "name": "",
          "type": "address"
        }
      ],
      "name": "allowance",
      "outputs": [
        {
          "internalType": "uint256",
          "name": "",
          "type": "uint256"
        }
      ],
      "stateMutability": "view",
      "type": "function"
    },
    {
      "inputs": [
        {
          "internalType": "address",
          "name": "spender",
          "type": "address"
        },
        {
          "internalType": "uint256",
          "name": "amount",
          "type": "uint256"
        }
      ],
      "name": "approve",
      "outputs": [
        {
          "internalType": "bool",
          "name": "",
          "type": "bool"
        }
      ],
      "stateMutability": "nonpayable",
      "type": "function"
    },
    {
      "inputs": [
        {
          "internalType": "address",
          "name": "",
          "type": "address"
        }
      ],
      "name": "balanceOf",
      "outputs": [
        {
          "internalType": "uint256",
          "name": "",
          "type": "uint256"
        }
      ],
      "stateMutability": "view",
      "type": "function"
    },
    {
      "inputs": [
        {
          "internalType": "uint256",
          "name": "randomWord",
          "type": "uint256"
        }
      ],
      "name": "chooseWinner",
      "outputs": [
        {
          "internalType": "uint256",
          "name": "winnerIndex",
          "type": "uint256"
        }
      ],
      "stateMutability": "view",
      "type": "function"
    },
    {
      "inputs": [],
      "name": "decimals",
      "outputs": [
        {
          "internalType": "uint8",
          "name": "",
          "type": "uint8"
        }
      ],
      "stateMutability": "view",
      "type": "function"
    },
    {
      "inputs": [],
      "name": "endRound",
      "outputs": [],
      "stateMutability": "nonpayable",
      "type": "function"
    },
    {
      "inputs": [
        {
          "internalType": "uint256",
          "name": "requestId",
          "type": "uint256"
        },
        {
          "internalType": "uint256[]",
          "name": "randomWords",
          "type": "uint256[]"
        }
      ],
      "name": "fulfillRandomWords",
      "outputs": [],
      "stateMutability": "nonpayable",
      "type": "function"
    },
    {
      "inputs": [],
      "name": "getRoundConfig",
      "outputs": [
        {
          "components": [
            {
              "internalType": "uint256",
              "name": "roundId",
              "type": "uint256"
            },
            {
              "internalType": "uint256",
              "name": "vrfRequestId",
              "type": "uint256"
            },
            {
              "internalType": "uint256",
              "name": "vrfResult",
              "type": "uint256"
            },
            {
              "internalType": "uint256",
              "name": "winner",
              "type": "uint256"
            },
            {
              "internalType": "enum RoundStatus",
              "name": "status",
              "type": "uint8"
            },
            {
              "components": [
                {
                  "internalType": "address",
                  "name": "artistAddr",
                  "type": "address"
                },
                {
                  "internalType": "address",
                  "name": "tokenAddr",
                  "type": "address"
                },
                {
                  "internalType": "address",
                  "name": "tokenId",
                  "type": "address"
                },
                {
                  "internalType": "uint256",
                  "name": "votes",
                  "type": "uint256"
                }
              ],
              "internalType": "struct RoundTrack[]",
              "name": "tracks",
              "type": "tuple[]"
            }
          ],
          "internalType": "struct RoundConfig",
          "name": "rc",
          "type": "tuple"
        }
      ],
      "stateMutability": "view",
      "type": "function"
    },
    {
      "inputs": [
        {
          "internalType": "uint256",
          "name": "requestId",
          "type": "uint256"
        }
      ],
      "name": "getWords",
      "outputs": [
        {
          "internalType": "uint256[]",
          "name": "",
          "type": "uint256[]"
        }
      ],
      "stateMutability": "view",
      "type": "function"
    },
    {
      "inputs": [
        {
          "internalType": "address",
          "name": "to",
          "type": "address"
        },
        {
          "internalType": "uint256",
          "name": "amount",
          "type": "uint256"
        }
      ],
      "name": "mint",
      "outputs": [],
      "stateMutability": "nonpayable",
      "type": "function"
    },
    {
      "inputs": [],
      "name": "name",
      "outputs": [
        {
          "internalType": "string",
          "name": "",
          "type": "string"
        }
      ],
      "stateMutability": "view",
      "type": "function"
    },
    {
      "inputs": [
        {
          "internalType": "address",
          "name": "",
          "type": "address"
        }
      ],
      "name": "nonces",
      "outputs": [
        {
          "internalType": "uint256",
          "name": "",
          "type": "uint256"
        }
      ],
      "stateMutability": "view",
      "type": "function"
    },
    {
      "inputs": [
        {
          "internalType": "address",
          "name": "owner",
          "type": "address"
        },
        {
          "internalType": "address",
          "name": "spender",
          "type": "address"
        },
        {
          "internalType": "uint256",
          "name": "value",
          "type": "uint256"
        },
        {
          "internalType": "uint256",
          "name": "deadline",
          "type": "uint256"
        },
        {
          "internalType": "uint8",
          "name": "v",
          "type": "uint8"
        },
        {
          "internalType": "bytes32",
          "name": "r",
          "type": "bytes32"
        },
        {
          "internalType": "bytes32",
          "name": "s",
          "type": "bytes32"
        }
      ],
      "name": "permit",
      "outputs": [],
      "stateMutability": "nonpayable",
      "type": "function"
    },
    {
      "inputs": [],
      "name": "roundConfig",
      "outputs": [
        {
          "internalType": "uint256",
          "name": "roundId",
          "type": "uint256"
        },
        {
          "internalType": "uint256",
          "name": "vrfRequestId",
          "type": "uint256"
        },
        {
          "internalType": "uint256",
          "name": "vrfResult",
          "type": "uint256"
        },
        {
          "internalType": "uint256",
          "name": "winner",
          "type": "uint256"
        },
        {
          "internalType": "enum RoundStatus",
          "name": "status",
          "type": "uint8"
        }
      ],
      "stateMutability": "view",
      "type": "function"
    },
    {
      "inputs": [],
      "name": "s_numWords",
      "outputs": [
        {
          "internalType": "uint32",
          "name": "",
          "type": "uint32"
        }
      ],
      "stateMutability": "view",
      "type": "function"
    },
    {
      "inputs": [
        {
          "internalType": "uint256",
          "name": "",
          "type": "uint256"
        }
      ],
      "name": "s_randomWords",
      "outputs": [
        {
          "internalType": "uint256",
          "name": "",
          "type": "uint256"
        }
      ],
      "stateMutability": "view",
      "type": "function"
    },
    {
      "inputs": [],
      "name": "s_requestId",
      "outputs": [
        {
          "internalType": "uint256",
          "name": "",
          "type": "uint256"
        }
      ],
      "stateMutability": "view",
      "type": "function"
    },
    {
      "inputs": [
        {
          "components": [
            {
              "internalType": "uint256",
              "name": "roundId",
              "type": "uint256"
            },
            {
              "internalType": "uint256",
              "name": "vrfRequestId",
              "type": "uint256"
            },
            {
              "internalType": "uint256",
              "name": "vrfResult",
              "type": "uint256"
            },
            {
              "internalType": "uint256",
              "name": "winner",
              "type": "uint256"
            },
            {
              "internalType": "enum RoundStatus",
              "name": "status",
              "type": "uint8"
            },
            {
              "components": [
                {
                  "internalType": "address",
                  "name": "artistAddr",
                  "type": "address"
                },
                {
                  "internalType": "address",
                  "name": "tokenAddr",
                  "type": "address"
                },
                {
                  "internalType": "address",
                  "name": "tokenId",
                  "type": "address"
                },
                {
                  "internalType": "uint256",
                  "name": "votes",
                  "type": "uint256"
                }
              ],
              "internalType": "struct RoundTrack[]",
              "name": "tracks",
              "type": "tuple[]"
            }
          ],
          "internalType": "struct RoundConfig",
          "name": "rc",
          "type": "tuple"
        }
      ],
      "name": "setRoundConfig",
      "outputs": [],
      "stateMutability": "nonpayable",
      "type": "function"
    },
    {
      "inputs": [
        {
          "components": [
            {
              "internalType": "address",
              "name": "artistAddr",
              "type": "address"
            },
            {
              "internalType": "address",
              "name": "tokenAddr",
              "type": "address"
            },
            {
              "internalType": "address",
              "name": "tokenId",
              "type": "address"
            },
            {
              "internalType": "uint256",
              "name": "votes",
              "type": "uint256"
            }
          ],
          "internalType": "struct RoundTrack[]",
          "name": "tracks",
          "type": "tuple[]"
        }
      ],
      "name": "startRound",
      "outputs": [],
      "stateMutability": "nonpayable",
      "type": "function"
    },
    {
      "inputs": [],
      "name": "symbol",
      "outputs": [
        {
          "internalType": "string",
          "name": "",
          "type": "string"
        }
      ],
      "stateMutability": "view",
      "type": "function"
    },
    {
      "inputs": [],
      "name": "totalSupply",
      "outputs": [
        {
          "internalType": "uint256",
          "name": "",
          "type": "uint256"
        }
      ],
      "stateMutability": "view",
      "type": "function"
    },
    {
      "inputs": [
        {
          "internalType": "address",
          "name": "to",
          "type": "address"
        },
        {
          "internalType": "uint256",
          "name": "amount",
          "type": "uint256"
        }
      ],
      "name": "transfer",
      "outputs": [
        {
          "internalType": "bool",
          "name": "",
          "type": "bool"
        }
      ],
      "stateMutability": "nonpayable",
      "type": "function"
    },
    {
      "inputs": [
        {
          "internalType": "address",
          "name": "from",
          "type": "address"
        },
        {
          "internalType": "address",
          "name": "to",
          "type": "address"
        },
        {
          "internalType": "uint256",
          "name": "amount",
          "type": "uint256"
        }
      ],
      "name": "transferFrom",
      "outputs": [
        {
          "internalType": "bool",
          "name": "",
          "type": "bool"
        }
      ],
      "stateMutability": "nonpayable",
      "type": "function"
    },
    {
      "inputs": [
        {
          "internalType": "uint256",
          "name": "trackId",
          "type": "uint256"
        },
        {
          "internalType": "uint256",
          "name": "amt",
          "type": "uint256"
        }
      ],
      "name": "vote",
      "outputs": [],
      "stateMutability": "nonpayable",
      "type": "function"
    }
  ],
  "bytecode": {
    "object": "0x6101c06040526203a9806101605260036101805260026101a0523480156200002657600080fd5b50604051620026f4380380620026f483398101604081905262000049916200023f565b6040518060400160405280600381526020016253544560e81b8152506040518060400160405280600481526020016314d5115560e21b8152506012826000908162000095919062000343565b506001620000a4838262000343565b5060ff81166080524660a052620000ba62000119565b60c05250620000d79150339050683635c9adc5dea00000620001b5565b6001600160a01b0392831660e05291166101005261014052600880546001600160a01b031916331790556001600160401b0316610120526000600955620004b5565b60007f8b73c3c69bb8fe3d512ecc4cf759cc79239f7b179b0ffacaa9a75d522b39400f60006040516200014d91906200040f565b6040805191829003822060208301939093528101919091527fc89efdaa54c0f20c7adf612882df0950f5a951637e0307cdcb4c672f298b8bc660608201524660808201523060a082015260c00160405160208183030381529060405280519060200120905090565b8060026000828254620001c991906200048d565b90915550506001600160a01b0382166000818152600360209081526040808320805486019055518481527fddf252ad1be2c89b69c2b068fc378daa952ba7f163c4a11628f55a4df523b3ef910160405180910390a35050565b80516001600160a01b03811681146200023a57600080fd5b919050565b600080600080608085870312156200025657600080fd5b84516001600160401b03811681146200026e57600080fd5b93506200027e6020860162000222565b92506200028e6040860162000222565b6060959095015193969295505050565b634e487b7160e01b600052604160045260246000fd5b600181811c90821680620002c957607f821691505b602082108103620002ea57634e487b7160e01b600052602260045260246000fd5b50919050565b601f8211156200033e57600081815260208120601f850160051c81016020861015620003195750805b601f850160051c820191505b818110156200033a5782815560010162000325565b5050505b505050565b81516001600160401b038111156200035f576200035f6200029e565b6200037781620003708454620002b4565b84620002f0565b602080601f831160018114620003af5760008415620003965750858301515b600019600386901b1c1916600185901b1785556200033a565b600085815260208120601f198616915b82811015620003e057888601518255948401946001909101908401620003bf565b5085821015620003ff5787850151600019600388901b60f8161c191681555b5050505050600190811b01905550565b60008083546200041f81620002b4565b600182811680156200043a5760018114620004505762000481565b60ff198416875282151583028701945062000481565b8760005260208060002060005b85811015620004785781548a8201529084019082016200045d565b50505082870194505b50929695505050505050565b80820180821115620004af57634e487b7160e01b600052601160045260246000fd5b92915050565b60805160a05160c05160e05161010051610120516101405161016051610180516101a0516121c76200052d6000396000818161035a01528181610a460152610ab4015260005050600050506000505060005050600050506000505060006107e0015260006107ab0152600061024001526121c76000f3fe608060405234801561001057600080fd5b50600436106101a35760003560e01c806370a08231116100ee5780639e2f04bf11610097578063d505accf11610071578063d505accf146103ca578063dd62ed3e146103dd578063e89e106a14610408578063f6eaffc81461041157600080fd5b80639e2f04bf14610391578063a9059cbb146103a4578063b384abef146103b757600080fd5b80637ecebe00116100c85780637ecebe001461032d57806395d89b411461034d578063967dd7801461035557600080fd5b806370a08231146102e5578063749aa2d91461030557806376f9378d1461030d57600080fd5b8063313ce5671161015057806338ba46141161012a57806338ba4614146102aa57806340c10f19146102bd57806356f8033b146102d057600080fd5b8063313ce5671461023b5780633644e51514610274578063370f95231461027c57600080fd5b806318160ddd1161018157806318160ddd146101fe5780631dd64f981461021557806323b872dd1461022857600080fd5b806306fdde03146101a8578063095ea7b3146101c657806317a77416146101e9575b600080fd5b6101b0610424565b6040516101bd9190611664565b60405180910390f35b6101d96101d43660046116f2565b6104b2565b60405190151581526020016101bd565b6101fc6101f736600461171e565b61052c565b005b61020760025481565b6040519081526020016101bd565b6101fc61022336600461182b565b61053e565b6101d9610236366004611915565b610663565b6102627f000000000000000000000000000000000000000000000000000000000000000081565b60405160ff90911681526020016101bd565b6102076107a7565b600954600a54600b54600c54600d54610299949392919060ff1685565b6040516101bd9594939291906119c0565b6101fc6102b83660046119f4565b610802565b6101fc6102cb3660046116f2565b6108d3565b6102d86108dd565b6040516101bd9190611a91565b6102076102f3366004611b5b565b60036020526000908152604090205481565b6101fc6109e6565b61032061031b366004611b78565b610a40565b6040516101bd9190611b91565b61020761033b366004611b5b565b60056020526000908152604090205481565b6101b0610b43565b61037c7f000000000000000000000000000000000000000000000000000000000000000081565b60405163ffffffff90911681526020016101bd565b61020761039f366004611b78565b610b50565b6101d96103b23660046116f2565b610de6565b6101fc6103c5366004611bd5565b610e6b565b6101fc6103d8366004611bf7565b610fb5565b6102076103eb366004611c6e565b600460209081526000928352604080842090915290825290205481565b61020760075481565b61020761041f366004611b78565b6112d4565b6000805461043190611ca7565b80601f016020809104026020016040519081016040528092919081815260200182805461045d90611ca7565b80156104aa5780601f1061047f576101008083540402835291602001916104aa565b820191906000526020600020905b81548152906001019060200180831161048d57829003601f168201915b505050505081565b33600081815260046020908152604080832073ffffffffffffffffffffffffffffffffffffffff8716808552925280832085905551919290917f8c5be1e5ebec7d5bd14f71427d1e84f3dd0314c0f7b2291e5b200ac8c7c3b9259061051a9086815260200190565b60405180910390a35060015b92915050565b8060096105398282611f12565b505050565b600d80547fffffffffffffffffffffffffffffffffffffffffffffffffffffffffffffff001660019081179091556009805460009061057e908490611ff3565b909155506105909050600e6000611547565b60005b815181101561065f5760096005018282815181106105b3576105b3612006565b602090810291909101810151825460018082018555600094855293839020825160049092020180547fffffffffffffffffffffffff000000000000000000000000000000000000000090811673ffffffffffffffffffffffffffffffffffffffff9384161782559383015194810180548516958316959095179094556040820151600285018054909416911617909155606001516003909101558061065781612035565b915050610593565b5050565b73ffffffffffffffffffffffffffffffffffffffff831660009081526004602090815260408083203384529091528120547fffffffffffffffffffffffffffffffffffffffffffffffffffffffffffffffff81146106f7576106c5838261206d565b73ffffffffffffffffffffffffffffffffffffffff861660009081526004602090815260408083203384529091529020555b73ffffffffffffffffffffffffffffffffffffffff85166000908152600360205260408120805485929061072c90849061206d565b909155505073ffffffffffffffffffffffffffffffffffffffff808516600081815260036020526040908190208054870190555190918716907fddf252ad1be2c89b69c2b068fc378daa952ba7f163c4a11628f55a4df523b3ef906107949087815260200190565b60405180910390a3506001949350505050565b60007f000000000000000000000000000000000000000000000000000000000000000046146107dd576107d86112f5565b905090565b507f000000000000000000000000000000000000000000000000000000000000000090565b600a54821461081057600080fd5b8060008151811061082357610823612006565b602090810291909101810151600b5581516108449160069190840190611568565b50600d80547fffffffffffffffffffffffffffffffffffffffffffffffffffffffffffffff00166003179055805161089490829060009061088757610887612006565b6020026020010151610b50565b600c556040517fefb16d61046900da527008568620fb9f8420e2f5ed4de3bfbded5035c9362b0e906108c7908390611b91565b60405180910390a15050565b61065f828261138f565b6108e56115b3565b6040805160c081018252600980548252600a546020830152600b5492820192909252600c546060820152600d54909190608083019060ff16600381111561092e5761092e611956565b600381111561093f5761093f611956565b815260200160058201805480602002602001604051908101604052809291908181526020016000905b828210156109d95760008481526020908190206040805160808101825260048602909201805473ffffffffffffffffffffffffffffffffffffffff90811684526001808301548216858701526002830154909116928401929092526003015460608301529083529092019101610968565b5050505081525050905090565b600a546000906109f7906001611ff3565b90506000610a0482610a40565b600d80547fffffffffffffffffffffffffffffffffffffffffffffffffffffffffffffff00166002179055600a839055905061065f8282610802565b606060007f000000000000000000000000000000000000000000000000000000000000000063ffffffff1667ffffffffffffffff811115610a8357610a83611760565b604051908082528060200260200182016040528015610aac578160200160208202803683370190505b50905060005b7f000000000000000000000000000000000000000000000000000000000000000063ffffffff16811015610b3c5760408051602081018690529081018290526060016040516020818303038152906040528051906020012060001c828281518110610b1f57610b1f612006565b602090810291909101015280610b3481612035565b915050610ab2565b5092915050565b6001805461043190611ca7565b600e80546040805160208084028201810190925282815260009384938493849084015b82821015610be45760008481526020908190206040805160808101825260048602909201805473ffffffffffffffffffffffffffffffffffffffff90811684526001808301548216858701526002830154909116928401929092526003015460608301529083529092019101610b73565b50505050905060005b8151811015610c3a576000828281518110610c0a57610c0a612006565b60200260200101516060015190508084610c249190611ff3565b9350508080610c3290612035565b915050610bed565b506000610c478386612080565b9050600080610c8a6040518060400160405280600a81526020017f766f746577696e6e657200000000000000000000000000000000000000000000815250611407565b610c9383611499565b60005b8451811015610d94576000858281518110610cb357610cb3612006565b60200260200101516060015190508084610ccd9190611ff3565b9250846000858210801590610ce157508482105b90508015610ced578399505b610d2b6040518060400160405280600281526020017f7273000000000000000000000000000000000000000000000000000000000000815250611407565b610d3486611499565b610d726040518060400160405280600281526020017f7265000000000000000000000000000000000000000000000000000000000000815250611407565b610d7b85611499565b8495505050508080610d8c90612035565b915050610c96565b50610dd36040518060400160405280600b81526020017f77696e6e6572696e646578000000000000000000000000000000000000000000815250611407565b610ddc86611499565b5050505050919050565b33600090815260036020526040812080548391908390610e0790849061206d565b909155505073ffffffffffffffffffffffffffffffffffffffff8316600081815260036020526040908190208054850190555133907fddf252ad1be2c89b69c2b068fc378daa952ba7f163c4a11628f55a4df523b3ef9061051a9086815260200190565b6001600d5460ff166003811115610e8457610e84611956565b14610ef0576040517f08c379a000000000000000000000000000000000000000000000000000000000815260206004820152601c60248201527f566f74696e6720726f756e64204e6f7420696e697469616c697a65640000000060448201526064015b60405180910390fd5b600060096005018381548110610f0857610f08612006565b6000918252602091829020604080516080810182526004909302909101805473ffffffffffffffffffffffffffffffffffffffff9081168085526001830154821695850195909552600282015416918301919091526003015460608201529150610f728184610de6565b508260096005018581548110610f8a57610f8a612006565b90600052602060002090600402016003016000828254610faa9190611ff3565b909155505050505050565b4284101561101f576040517f08c379a000000000000000000000000000000000000000000000000000000000815260206004820152601760248201527f5045524d49545f444541444c494e455f455850495245440000000000000000006044820152606401610ee7565b6000600161102b6107a7565b73ffffffffffffffffffffffffffffffffffffffff8a811660008181526005602090815260409182902080546001810190915582517f6e71edae12b1b97f4d1f60370fef10105fa2faae0126114a169c64845d6126c98184015280840194909452938d166060840152608083018c905260a083019390935260c08083018b90528151808403909101815260e0830190915280519201919091207f190100000000000000000000000000000000000000000000000000000000000061010083015261010282019290925261012281019190915261014201604080517fffffffffffffffffffffffffffffffffffffffffffffffffffffffffffffffe08184030181528282528051602091820120600084529083018083525260ff871690820152606081018590526080810184905260a0016020604051602081039080840390855afa15801561117d573d6000803e3d6000fd5b50506040517fffffffffffffffffffffffffffffffffffffffffffffffffffffffffffffffe0015191505073ffffffffffffffffffffffffffffffffffffffff8116158015906111f857508773ffffffffffffffffffffffffffffffffffffffff168173ffffffffffffffffffffffffffffffffffffffff16145b61125e576040517f08c379a000000000000000000000000000000000000000000000000000000000815260206004820152600e60248201527f494e56414c49445f5349474e45520000000000000000000000000000000000006044820152606401610ee7565b73ffffffffffffffffffffffffffffffffffffffff90811660009081526004602090815260408083208a8516808552908352928190208990555188815291928a16917f8c5be1e5ebec7d5bd14f71427d1e84f3dd0314c0f7b2291e5b200ac8c7c3b925910160405180910390a350505050505050565b600681815481106112e457600080fd5b600091825260209091200154905081565b60007f8b73c3c69bb8fe3d512ecc4cf759cc79239f7b179b0ffacaa9a75d522b39400f600060405161132791906120bb565b6040805191829003822060208301939093528101919091527fc89efdaa54c0f20c7adf612882df0950f5a951637e0307cdcb4c672f298b8bc660608201524660808201523060a082015260c00160405160208183030381529060405280519060200120905090565b80600260008282546113a19190611ff3565b909155505073ffffffffffffffffffffffffffffffffffffffff82166000818152600360209081526040808320805486019055518481527fddf252ad1be2c89b69c2b068fc378daa952ba7f163c4a11628f55a4df523b3ef910160405180910390a35050565b6114968160405160240161141b9190611664565b604080517fffffffffffffffffffffffffffffffffffffffffffffffffffffffffffffffe08184030181529190526020810180517bffffffffffffffffffffffffffffffffffffffffffffffffffffffff167f41304fac00000000000000000000000000000000000000000000000000000000179052611526565b50565b611496816040516024016114af91815260200190565b604080517fffffffffffffffffffffffffffffffffffffffffffffffffffffffffffffffe08184030181529190526020810180517bffffffffffffffffffffffffffffffffffffffffffffffffffffffff167ff5b1bba9000000000000000000000000000000000000000000000000000000001790525b80516a636f6e736f6c652e6c6f67602083016000808483855afa5050505050565b508054600082556004029060005260206000209081019061149691906115fa565b8280548282559060005260206000209081019282156115a3579160200282015b828111156115a3578251825591602001919060010190611588565b506115af92915061164f565b5090565b6040518060c0016040528060008152602001600081526020016000815260200160008152602001600060038111156115ed576115ed611956565b8152602001606081525090565b5b808211156115af5780547fffffffffffffffffffffffff00000000000000000000000000000000000000009081168255600182018054821690556002820180549091169055600060038201556004016115fb565b5b808211156115af5760008155600101611650565b600060208083528351808285015260005b8181101561169157858101830151858201604001528201611675565b5060006040828601015260407fffffffffffffffffffffffffffffffffffffffffffffffffffffffffffffffe0601f8301168501019250505092915050565b73ffffffffffffffffffffffffffffffffffffffff8116811461149657600080fd5b6000806040838503121561170557600080fd5b8235611710816116d0565b946020939093013593505050565b60006020828403121561173057600080fd5b813567ffffffffffffffff81111561174757600080fd5b820160c0818503121561175957600080fd5b9392505050565b7f4e487b7100000000000000000000000000000000000000000000000000000000600052604160045260246000fd5b6040516080810167ffffffffffffffff811182821017156117b2576117b2611760565b60405290565b604051601f82017fffffffffffffffffffffffffffffffffffffffffffffffffffffffffffffffe016810167ffffffffffffffff811182821017156117ff576117ff611760565b604052919050565b600067ffffffffffffffff82111561182157611821611760565b5060051b60200190565b6000602080838503121561183e57600080fd5b823567ffffffffffffffff81111561185557600080fd5b8301601f8101851361186657600080fd5b803561187961187482611807565b6117b8565b81815260079190911b8201830190838101908783111561189857600080fd5b928401925b8284101561190a57608084890312156118b65760008081fd5b6118be61178f565b84356118c9816116d0565b8152848601356118d8816116d0565b818701526040858101356118eb816116d0565b908201526060858101359082015282526080909301929084019061189d565b979650505050505050565b60008060006060848603121561192a57600080fd5b8335611935816116d0565b92506020840135611945816116d0565b929592945050506040919091013590565b7f4e487b7100000000000000000000000000000000000000000000000000000000600052602160045260246000fd5b600481106119bc577f4e487b7100000000000000000000000000000000000000000000000000000000600052602160045260246000fd5b9052565b600060a0820190508682528560208301528460408301528360608301526119ea6080830184611985565b9695505050505050565b60008060408385031215611a0757600080fd5b8235915060208084013567ffffffffffffffff811115611a2657600080fd5b8401601f81018613611a3757600080fd5b8035611a4561187482611807565b81815260059190911b82018301908381019088831115611a6457600080fd5b928401925b82841015611a8257833582529284019290840190611a69565b80955050505050509250929050565b6000602080835260e0830184518285015281850151604081818701528087015191506060828188015280880151925060808381890152808901519350611ada60a0890185611985565b60a089015160c089810152805195869052860194600094506101008901905b80861015611b4d578651805173ffffffffffffffffffffffffffffffffffffffff90811684528982015181168a85015286820151168684015284015184830152958701956001959095019490820190611af9565b509998505050505050505050565b600060208284031215611b6d57600080fd5b8135611759816116d0565b600060208284031215611b8a57600080fd5b5035919050565b6020808252825182820181905260009190848201906040850190845b81811015611bc957835183529284019291840191600101611bad565b50909695505050505050565b60008060408385031215611be857600080fd5b50508035926020909101359150565b600080600080600080600060e0888a031215611c1257600080fd5b8735611c1d816116d0565b96506020880135611c2d816116d0565b95506040880135945060608801359350608088013560ff81168114611c5157600080fd5b9699959850939692959460a0840135945060c09093013592915050565b60008060408385031215611c8157600080fd5b8235611c8c816116d0565b91506020830135611c9c816116d0565b809150509250929050565b600181811c90821680611cbb57607f821691505b602082108103611cf4577f4e487b7100000000000000000000000000000000000000000000000000000000600052602260045260246000fd5b50919050565b7f4e487b7100000000000000000000000000000000000000000000000000000000600052601160045260246000fd5b8135611d34816116d0565b81547fffffffffffffffffffffffff00000000000000000000000000000000000000001673ffffffffffffffffffffffffffffffffffffffff8216178255506020820135611d81816116d0565b6001820180547fffffffffffffffffffffffff00000000000000000000000000000000000000001673ffffffffffffffffffffffffffffffffffffffff8316179055506040820135611dd2816116d0565b6002820180547fffffffffffffffffffffffff00000000000000000000000000000000000000001673ffffffffffffffffffffffffffffffffffffffff831617905550606082013560038201555050565b68010000000000000000831115611e3c57611e3c611760565b805483825580841015611ed5577f3fffffffffffffffffffffffffffffffffffffffffffffffffffffffffffffff6001818311811615611e7e57611e7e611cfa565b6002828711821615611e9257611e92611cfa565b60008581526020812090935087821b81019085831b015b80821015611ecf5784825584848301558483830155846003830155600482019150611ea9565b50505050505b5060008181526020812083915b85811015611f0a57611ef48383611d29565b6080929092019160049190910190600101611ee2565b505050505050565b8135815560208201356001820155604082013560028201556060820135600382015560048101608083013560048110611f4a57600080fd5b7fffffffffffffffffffffffffffffffffffffffffffffffffffffffffffffff0082541660ff82168117835550505060a08201357fffffffffffffffffffffffffffffffffffffffffffffffffffffffffffffffe1833603018112611fae57600080fd5b8201803567ffffffffffffffff811115611fc757600080fd5b6020820191508060071b3603821315611fdf57600080fd5b611fed818360058601611e23565b50505050565b8082018082111561052657610526611cfa565b7f4e487b7100000000000000000000000000000000000000000000000000000000600052603260045260246000fd5b60007fffffffffffffffffffffffffffffffffffffffffffffffffffffffffffffffff820361206657612066611cfa565b5060010190565b8181038181111561052657610526611cfa565b6000826120b6577f4e487b7100000000000000000000000000000000000000000000000000000000600052601260045260246000fd5b500690565b600080835481600182811c9150808316806120d757607f831692505b6020808410820361210f577f4e487b710000000000000000000000000000000000000000000000000000000086526022600452602486fd5b818015612123576001811461215657612183565b7fffffffffffffffffffffffffffffffffffffffffffffffffffffffffffffff0086168952841515850289019650612183565b60008a81526020902060005b8681101561217b5781548b820152908501908301612162565b505084890196505b50949897505050505050505056fea264697066735822122065d1e6c0584ec44c149538f119245dc697caa75805e41cba0707a5a64a2969b964736f6c63430008100033",
    "linkReferences": {}
  },
  "methodIdentifiers": {
    "DOMAIN_SEPARATOR()": "3644e515",
    "allowance(address,address)": "dd62ed3e",
    "approve(address,uint256)": "095ea7b3",
    "balanceOf(address)": "70a08231",
    "chooseWinner(uint256)": "9e2f04bf",
    "decimals()": "313ce567",
    "endRound()": "749aa2d9",
    "fulfillRandomWords(uint256,uint256[])": "38ba4614",
    "getRoundConfig()": "56f8033b",
    "getWords(uint256)": "76f9378d",
    "mint(address,uint256)": "40c10f19",
    "name()": "06fdde03",
    "nonces(address)": "7ecebe00",
    "permit(address,address,uint256,uint256,uint8,bytes32,bytes32)": "d505accf",
    "roundConfig()": "370f9523",
    "s_numWords()": "967dd780",
    "s_randomWords(uint256)": "f6eaffc8",
    "s_requestId()": "e89e106a",
    "setRoundConfig((uint256,uint256,uint256,uint256,uint8,(address,address,address,uint256)[]))": "17a77416",
    "startRound((address,address,address,uint256)[])": "1dd64f98",
    "symbol()": "95d89b41",
    "totalSupply()": "18160ddd",
    "transfer(address,uint256)": "a9059cbb",
    "transferFrom(address,address,uint256)": "23b872dd",
    "vote(uint256,uint256)": "b384abef"
  },
  "id": 14
}